:020000040800F2
:10000000E8040020C1010008FB100008F7100008F8
:10001000F9100008A90200087D1500080000000082
:100020000000000000000000000000001F11000898
:100030007D030008000000001D11000821110008C8
:10004000DB010008DB010008DB010008DB01000820
:10005000DB010008DB010008DB010008DB01000810
:10006000DB010008DB010008DB010008DB01000800
:10007000DB010008DB010008DB010008DB010008F0
:10008000DB010008DB010008DB010008DB010008E0
:10009000DB010008DB010008DB010008DB010008D0
:1000A000DB010008DB010008DB010008DB010008C0
:1000B000DB010008DB010008DB010008DB010008B0
:1000C000DB010008DB010008DB010008DB010008A0
:1000D000DB010008DB010008DB010008DB01000890
:1000E000DB010008DB010008DB010008DB01000880
:1000F000DB010008DB010008DB010008DB01000870
:10010000DB010008DB010008DB010008DB0100085F
:10011000DB010008DB010008DB010008DB0100084F
:10012000DB010008DB010008AD020008DB0100086C
:10013000DB010008DB010008DB010008DB0100082F
:10014000DB010008DB010008DB010008DB0100081F
:10015000DB010008DB010008DB010008DB0100080F
:10016000DB010008DB010008DB010008DB010008FF
:10017000DB010008DB010008DB01000800000000D3
:10018000DB010008DB010008DB010008DB010008DF
:10019000DB010008DB010008DB010008DB010008CF
:1001A000DB010008DB010008DB010008DFF80CD0F0
:1001B00000F068F800480047A1150008E804002096
:1001C0000648804706480047FEE7FEE7FEE7FEE7F1
:1001D000FEE7FEE7FEE7FEE7FEE7FEE7BD110008EB
:1001E000AD0100082DE9F05F0546002092469B46D0
:1001F00088460646814640241BE02846414647463D
:10020000224600F02FF853465A46C01A914110D3A7
:1002100011461846224600F016F82D1A67EB010821
:100220004F4622460120002100F00DF817EB00098F
:100230004E41201EA4F10104DFDC484631462A4627
:100240004346BDE8F09F202A04DB203A00FA02F181
:10025000002070479140C2F1200320FA03F31943B4
:1002600090407047202A04DB203A21FA02F0002156
:10027000704721FA02F3D040C2F1200291400843B6
:1002800019467047064C074D06E0E06840F0010350
:1002900094E8070098471034AC42F6D3FFF78AFF82
:1002A000B0160008D0160008FEE7000070B5012265
:1002B000074D14032146284600F0BEFA00222146CD
:1002C000284600F0B9FABDE87040024800F058B87E
:1002D000001802408400002001681823CAB2103AB6
:1002E000B2FBF3F2054B6FF30901032A9B5CC36574
:1002F00000D9091D81650846704700009016000866
:1003000010B5014600208B698A6A4FF0C07453B162
:10031000B3F5005F15D072B1012A0CD0022A0AD0C1
:10032000032A09D104E01AB1012A06D0022A03D116
:10033000C96AC90100D5012010BDC96AA142FAD01D
:1003400010BD002AF7D0012AF2D0022AF3D0032AE6
:10035000F3D010BD30B50468256825F480252560EC
:10036000046863608368402B036803D09960006869
:10037000C26030BD9A600068C16030BD7047000047
:100380002DE9F84304464FF00009CDF8009063488A
:100390004FF41651A56D0068B0FBF1F72E6894F884
:1003A0005C10082000FA01F131420FD021680A6880
:1003B00052070BD50A6822F004020A6094F85C1018
:1003C0008840A860606D40F00100606594F85C10A2
:1003D0004FF0010808FA01F0304208D0216849695D
:1003E000090604D5A860606D40F00200606594F8CD
:1003F0005C1004208840304208D0216809688907D1
:1004000004D5A860606D40F00400606594F85C104D
:1004100010208840304218D021680968090714D597
:10042000A86020680168490304D50068000308D566
:10043000A16C07E00168C90503D4016821F0080137
:100440000160216C09B12046884794F85C10202097
:100450008840304231D021680968C9062DD5A8608E
:1004600094F8350005282068016806D0490347D56F
:10047000006800031DD4616C1CE021F016010160CE
:100480002068416921F080014161206C08B9A06CAD
:1004900020B12068016821F00801016094F85C1027
:1004A0003F208840A86084F8349084F83580216D1E
:1004B0001FE0E16B09B120468847606D00282BD012
:1004C000606DC00714D0052084F8350020680168ED
:1004D00021F0010101600098401C0090B84203D84F
:1004E00020680068C007F6D184F8349084F835801D
:1004F000E16C002910D001B02046BDE8F043084768
:100500000168C905D5D4016821F01001016084F8A3
:10051000349084F83580CCE7BDE8F8830C000020E7
:100520002DE9F041044600F08DF906465CB1002546
:1005300084F83450022084F835002068016821F0E6
:10054000010101600DE00120BDE8F08100F07AF9C1
:10055000801B052805D920206065032084F835001C
:10056000F2E720680068C007F0D1226811682048CF
:100570000140D4E901031843D4E903363343184357
:1005800063691843A3691843E3691843236A18434E
:100590000843616A042903D1D4E90B1319430843C2
:1005A000106020684069666A20F0070130460E43FB
:1005B000012704280CD1A06A0643E06A40B1204616
:1005C000FFF79EFE20B14020606584F83570BAE7E1
:1005D000206846612046FFF77FFE94F85C203F21AB
:1005E00091408160656584F835700020ACE70000BB
:1005F0003F8010F02DE9F0410446866D90F83400FC
:10060000002501280DD0012084F8340094F83570BD
:100610000020012F07D084F8340002252846BDE8C9
:10062000F0810220FBE7022784F8357060652046E0
:10063000FFF790FE94F85C103F208840B06020687F
:10064000016841F0160101602068416941F08001B4
:100650004161206C20B12068016841F0080101600F
:100660002068016841F001010160D7E72DE9F84FEA
:10067000DFF890B100224FF001084FF0030A4FF06D
:100680000F090BF1040E00BF0B6808FA02F42340B7
:10069000A3426ED14D68022D01D0122D0ED1D50886
:1006A00000EB850CDCF820505607F70E09FA07F628
:1006B000B5430E69BE402E43CCF820600668550055
:1006C0000F790AFA05FC07F0030726EA0C06AF408B
:1006D000374307604E68012E05D0022E03D0112E3D
:1006E00001D0122E0ED18768CE6827EA0C07AE40E3
:1006F0003E4386604668A6430C79C4F300149440D8
:1007000034434460C4688E6824EA0C04AE40264337
:10071000C6604C68E4006FD53B4C256845F48045C5
:100720002560246822F0030504F480440094374CCB
:100730002E19D6F8084895072F0F09FA07F5AC438C
:10074000334DA84201D100252EE0324DA84201D1FF
:10075000012529E0304DA84201D1022524E02F4D8A
:10076000A84201D103251FE02D4DA84202D1042546
:100770001AE041E02B4DA84201D1052514E02A4D95
:10078000A84201D106250FE0284DA84201D1072536
:100790000AE0274DA84201D1082505E0254DA842D1
:1007A00001D1092500E00A25BD402543C6F80858B7
:1007B000DBF800405D464E689C43F60300D51C43C1
:1007C0002C60DEF8004075464E689C43B60300D5A9
:1007D0001C432C600B4D08352C684E689C43F60278
:1007E00000D51C432C60074D0C352C684E689C438B
:1007F000B60200D51C432C60521C102AFFF444AFF3
:10080000BDE8F88F003C0140443802400030014010
:10081000000002400004024000080240000C0240B8
:10082000001002400014024000180240001C024068
:1008300000200240002402400AB18161704709048F
:10084000FBE70000014880687047000000000020BE
:1008500002488168027811448160704700000020DE
:100860000B4810B5016841F400710160016841F462
:1008700080610160016841F480710160032000F033
:1008800097F8002000F006F800F024F8002010BDD2
:10089000003C024070B50D4D04464FF47A71287843
:1008A000B1FBF0F00A490968B1FBF0F000F01DFB64
:1008B00048B9102C07D200222146501E00F058F8EB
:1008C00000206C6070BD012070BD000000000020A1
:1008D0000C0000201F4808B5016841F48041016008
:1008E000006800F4804000901A48001F016841F041
:1008F00080510160006800F080500090032000F0FB
:1009000057F8002211466FF00B0000F031F800227A
:1009100011466FF00A0000F02BF8002211466FF02C
:10092000090000F025F800221146501F00F020F8C1
:1009300000221146101F00F01BF800221146901EE5
:1009400000F016F80022BDE808401146501E00F0E5
:100950000FB800004438024000F01F02012191400E
:100960004009800000F1E020C0F80011704700004D
:10097000F0B40E4B1B680C46C3F30223C3F107050A
:10098000042D00D90425191D072901D2002300E0F8
:10099000DB1E012606FA05F1491E214099409E40C2
:1009A000761E16403143F0BC00F0A8BB0CED00E011
:1009B000064900F0070208684FF6FF03184040EAB6
:1009C0000220034A10430860704700000CED00E06D
:1009D0000000FA052DE9F0470E46050065D0DFF866
:1009E0001481D8F80000F7B200F00F00B04207D22F
:1009F00088F80070D8F8000000F00F00B04254D121
:100A000028683D4C810712D5400703D5206840F483
:100A1000E05020602878000703D5206840F460404B
:100A200020602068A96820F0F00008432060287842
:100A3000C0072DD0304968680839012812D0022833
:100A400013D0032811D00968890700292DDA2168FD
:100A500021F0030101432160FFF7F4FE814641F2DA
:100A6000883A0EE009688903EFE709688901ECE735
:100A7000FFF7E8FEA0EB0901514502D90320BDE8CC
:100A8000F0872068696800F00C00B0EB810FEFD1AF
:100A9000D8F80010404601F00F01B14207D90770A5
:100AA000006800F00F00B04201D00120E7E728788D
:100AB000400705D52068E96820F4E050084320602D
:100AC0002878000706D52068296920F4604040EAAC
:100AD000C100206000F03CF82168084AC1F303110E
:100AE000515CC840064908600020FFF7D3FE002093
:100AF000C5E70000003C0240083802409816000894
:100B00000C00002001480068704700000C00002025
:100B10000448054900680968044AC1F38221515C10
:100B2000C84070470C00002008380240A816000892
:100B30000448054900680968044AC1F34231515C20
:100B4000C84070470C00002008380240A816000872
:100B5000154810B5006810F00C02144813D0144961
:100B6000042A0FD0082A0ED10F4C241F22682368B4
:100B700002F03F025B0207D52068C0F38810A0FB9B
:100B8000010106E0084610BD2168C1F38811A1FBF0
:100B900000010023FFF726FB2168C1F30141491C36
:100BA0004900B0FBF1F010BD083802400024F40009
:100BB00040787D012DE9F84F050076D02878DFF8E0
:100BC000F8B2BE4CC00749D0DBF800105846C1F35C
:100BD0008101012908D00068C0F3810002280AD1F0
:100BE000201D0068400206D52068800336D568685D
:100BF0000028E2D032E06868B0F5803F10D0B0F550
:100C0000A02F206810D020F480302060206820F4CD
:100C1000802020606868A0B1FFF714FE06460CE053
:100C2000206840F48030F4E740F480202060F7E74B
:100C3000FFF708FE801B642873D820688003F7D56F
:100C40000CE0FFF7FFFD064605E000BFFFF7FAFDE9
:100C5000801B6428F0D820688003F7D42878DFF858
:100C6000608280074FF000093ED5DBF8001058463F
:100C700011F00C0F09D00068C0F3810002280BD1DD
:100C80008D48001F0068400206D42068800715D5F3
:100C9000E868012809D111E0E868B8B10120C8F876
:100CA0000000FFF7CFFD064605E002E1FFF7CAFDB1
:100CB000801B0228C0D820688007F7D520682969E2
:100CC00020F0F80040EAC10020600DE0C8F8009074
:100CD000FFF7B8FD064604E0FFF7B4FD801B0228CD
:100CE0001FD820688007F7D42878000722D5724ED5
:100CF000744869696C3671B101210160FFF7A2FD8A
:100D0000074604E0FFF79EFDC01B022809D83068A3
:100D10008007F7D50EE0C0F80090FFF793FD074677
:100D200005E083E0FFF78EFDC01B02287ED8306807
:100D30008007F7D42878400768D5DFF87CA1002722
:100D40000AF1380ADAF80000C0000BD4DAF8001013
:100D500041F08051CAF80010DAF80000012700F0D5
:100D600080500090584E3068C00510D4306840F470
:100D700080703060FFF766FD009005E0FFF762FDD0
:100D80000099401A022851D83068C005F6D54A4E5D
:100D9000A868683601280FD00528306810D020F0E8
:100DA00001003060306820F004003060A868B8B1FD
:100DB000FFF748FD00900FE0306840F00100F4E7D5
:100DC00040F004003060F7E7FFF73CFD0099411A5E
:100DD00041F28830814264D830688007F4D50EE053
:100DE000FFF730FD009007E0FFF72CFD0099411A56
:100DF00041F28830814254D830688007F4D42FB152
:100E0000DAF8001021F08051CAF80010A869C0B3C8
:100E1000DBF80010C1F3810102294AD002284846BC
:100E200007D0C8F86000FFF70DFD00E039E0054687
:100E30003AE04746C8F86000FFF704FD064604E0C4
:100E4000FFF700FD801B02282BD820688001F7D413
:100E5000D5E907010843A96A1C4A490802EB014188
:100E60006A6A41EA8211084395F82C1040EA016150
:100E70001148001F016001203866FFF7E3FC0546BA
:100E800005E014E0FFF7DEFC401B022809D82068CB
:100E90008001F7D50BE000BFFFF7D4FC401B022810
:100EA00002D90320BDE8F88F20688001F4D4002027
:100EB000F8E70120F6E70000083802400038024059
:100EC00000004742800E4742007000400000FFFFD4
:100ED0004FF0E0210428086903D020F004000861E5
:100EE000704740F00400FAE7704710B5401EB0F1BB
:100EF000807F01D3012010BD4FF0E02460610F21FD
:100F0000601700F0FBF80020A0610720206100209E
:100F100010BD10B5FFF7E8FF10BD704770B50400B5
:100F200004D094F83900002510B106E0012070BD0E
:100F300084F83850204600F023F8242084F8390043
:100F40002068C16821F40051C160204600F0C0F95A
:100F50002068016921F4904101612068416921F014
:100F60002A0141612068C16841F40051C160E56314
:100F7000202084F8390084F83A00002070BD000079
:100F800070B5064600681C4986B0884231D11B48BE
:100F90000025016841F0100101600068694600F019
:100FA000100005904FF4C0600090022001900120D5
:100FB000029003200390072004901148FFF756FB8E
:100FC000114C104820604FF00060C4E90105401446
:100FD000C4E903506561A561E5612562204665624B
:100FE000FFF79EFA18B1772108A000F0C8FA7463E1
:100FF000A66306B070BD00000010014044380240F6
:101000000000024040640240840000202E2E2F5336
:1010100072632F73746D3332663478785F68616CF5
:101020005F6D73702E630000F8B5044690F83A00C7
:1010300020283CD1C1B3BAB394F83800012836D087
:10104000012084F83800A162A2850025E5632220F2
:1010500084F83A00636B1748D863636B16481864CA
:10106000636B1648D864606B134605650846666B6B
:10107000216802463046091DFFF7BCFA2068016866
:101080004168009184F83850C16841F48071C160B2
:101090002068416941F0010141612068416941F0E6
:1010A000400141610020F8BDFFE70120FBE702207D
:1010B000F9E700005B1200089712000811120008FF
:1010C00070B50122084D940321462846FFF7B4FB72
:1010D000002221462846FFF7AFFBBDE87040FA2208
:1010E00002490348FFF7A0BF0018024000C00120DA
:1010F000100000207047FEE7FEE770470907090E61
:10110000002806DA00F00F0000F1E02080F8141D3E
:10111000704700F1E02080F8001470477047704776
:1011200010B5FFF795FBBDE81040FFF7F2BE0000D9
:1011300010B5204892B00024016841F08051016050
:10114000006800F0805011901B48016821F4404174
:1011500041F4804101600068069400F44040119021
:101160000220009001200390102004906846FFF7B1
:1011700021FD00B1FEE70F20CDE90C040E940F9481
:1011800000210CA81094FFF725FC00B1FEE7FFF743
:10119000B9FC4FF47A71B0FBF1F0FFF7A6FE042022
:1011A000FFF796FE00221146501EFFF7E1FB12B03A
:1011B00010BD000040380240007000401048016837
:1011C00041F4700101600F48016841F001010160C4
:1011D0000C4A00210832116002680B4B1A40026071
:1011E000031D0A4A1A60026822F480220260054840
:1011F0000C300160024958068039086070470000D1
:1012000088ED00E000380240FFFFF6FE10300024B9
:1012100070B5846B2068406994F83910C0F3C01031
:101220000025212904D118B1E584204600F046F8B4
:101230002068406994F83A10C0F38010222904D144
:1012400018B1E585204600F02BF8E06B40F0100067
:10125000E0632046FFF761FE70BD10B50146806B6C
:1012600009680968C90513D40021C1850168CA68E5
:1012700022F48072CA6001684A6922F001024A6160
:1012800001684A6922F040024A61202180F83A1040
:10129000FFF716FF10BD10B5806BFFF72BFF10BDD9
:1012A0000168CA6822F49072CA6001684A6922F033
:1012B00001024A61202180F83A1070470168CA682B
:1012C00022F0C002CA60202180F839107047000067
:1012D0002DE9F04104460068016921F44052E168BB
:1012E000114301612168C86849F20C629043236987
:1012F000A268E5691A4363692B431A430243CA6033
:101300002168486920F44072A06910434861E1698E
:101310006425B1F5004F9748974A21684FF032088D
:101320003FD0914201D081427CD1FFF701FC00EB1C
:10133000C00101EB001061688900B0FBF1F6FFF716
:10134000F7FB00EBC00101EB001061688900B0FB06
:10135000F1F0B0FBF5F06FF01801484306EB8001A7
:1013600008EB0110B0FBF5F000F0F006FFF7E0FB32
:1013700000EBC00101EB001061688900B0FBF1F0E7
:10138000B0FBF5F006EB0016FFF7D2FB00EBC00157
:1013900001EB001061688900B0FBF1F7FFF7C8FBB3
:1013A000D2E0914201D081423DD1FFF7C1FB00EB79
:1013B000C00101EB001061684900B0FBF1F0B0FB27
:1013C000F5F00601FFF7B4FB00EBC00101EB0010E4
:1013D00061684900B0FBF1F7FFF7AAFB00EBC00121
:1013E00001EB001061684900B0FBF1F0B0FBF5F0D3
:1013F0006FF01801484307EB800108EBC100B0FB18
:10140000F5F000F0F80006EB4006FFF791FB00EB6B
:10141000C00101EB001061684900B0FBF1F7FFF774
:1014200087FB3CE055E0FFF773FB00EBC00101EBED
:10143000001061684900B0FBF1F0B0FBF5F0060167
:10144000FFF766FB00EBC00101EB0010616849008B
:10145000B0FBF1F7FFF75CFB00EBC00101EB001004
:1014600061684900B0FBF1F0B0FBF5F06FF01801D6
:10147000484307EB800108EBC100B0FBF5F000F03A
:10148000F80006EB4006FFF743FB00EBC00101EB61
:10149000001061684900B0FBF1F7FFF739FB00EB82
:1014A000C00101EB001061684900B0FBF1F0B0FB36
:1014B000F5F06FF01801484307EB800108EBC1001D
:1014C000B0FBF5F000F00700216830448860BDE80B
:1014D000F081FFF71DFB00EBC00101EB001061681C
:1014E0008900B0FBF1F6FFF713FB00EBC00101EB45
:1014F000001061688900B0FBF1F0B0FBF5F06FF00F
:101500001801484306EB800108EB0110B0FBF5F031
:1015100000F0F006FFF7FCFA00EBC00101EB001051
:1015200061688900B0FBF1F0B0FBF5F006EB001646
:10153000FFF7EEFA00EBC00101EB001061688900D3
:10154000B0FBF1F7FFF7E4FA00EBC00101EB00108C
:1015500061688900B0FBF1F0B0FBF5F06FF01801A5
:10156000484307EB800108EB0110B0FBF5F000F0F9
:101570000F00A9E70014014000100140FEE7FEE75C
:1015800002E008C8121F08C1002AFAD1704770474C
:10159000002001E001C1121F002AFBD170470000AA
:1015A00086B0FFF75DF9FFF7C3FD334C00262068D6
:1015B00040F001002060206800F0010005902068E4
:1015C00040F04000206020682C4D00F040004FF4B7
:1015D000E0470590324639462846FFF72DF90120AD
:1015E0000097CDE90106694628460396FFF73EF8C5
:1015F000206840F4800020602068002200F4800011
:10160000009011463A20FFF7B3F93A20FFF7A4F90A
:101610001C491B4808604FF4E130C1E901060C2069
:10162000CE60C1E904608E610846CE61FFF776FCAA
:1016300000B1FEE7134C0020AA2140342154401C85
:101640003228FBD3FA2210490E48FFF7EDFC4FF485
:101650000056012231462846FFF7EEF800200B49DC
:10166000225C0A54401C3228F9D300223146284615
:10167000FFF7E2F8EDE700003038024000180240C2
:10168000001001401000002000C0012000050020D3
:1016900000061016000610160000000000000000F2
:1016A0000102030406070809000000000102030408
:1016B000D01600080000002010000000801500086F
:1016C000E016000810000020D80400009015000863
:1016D0000100000010000000000000000024F400E1
:04000005080001AD41
:00000001FF
