:020000040800F2
:1000000080880020C1010008270A0008570800085E
:10001000250A0008AB020008991300080000000040
:100020000000000000000000000000002D1100088A
:100030005D07000800000000730E000801120008B0
:10004000DB010008DB010008DB010008DB01000820
:10005000DB010008DB010008DB010008DB01000810
:10006000DB010008DB010008DB010008DB01000800
:10007000DB010008DB010008DB010008DB010008F0
:10008000DB010008DB010008DB010008DB010008E0
:10009000DB010008DB010008DB010008DB010008D0
:1000A000DB010008DB010008DB010008DB010008C0
:1000B000DB010008DB010008DB010008DB010008B0
:1000C000DB010008DB010008DB010008DB010008A0
:1000D000DB010008DB010008DB010008DB01000890
:1000E000DB010008DB010008DB010008DB01000880
:1000F000DB010008DB010008DB010008DB01000870
:10010000DB010008DB010008DB010008DB0100085F
:10011000DB010008DB010008DB010008DB0100084F
:10012000DB010008DB010008DB010008DB0100083F
:10013000DB010008DB010008DB010008DB0100082F
:10014000DB010008DB010008DB010008DB0100081F
:10015000DB010008DB010008DB010008DB0100080F
:10016000DB010008DB010008DB010008DB010008FF
:10017000DB010008DB01000805030008DB010008C3
:10018000DB010008DB010008DB010008DB010008DF
:10019000DB010008DB010008DB010008DB010008CF
:1001A000DB010008DB010008DB010008DFF80CD0F0
:1001B00000F04AF800480047C11600088088002077
:1001C0000648804706480047FEE7FEE7FEE7FEE7F1
:1001D000FEE7FEE7FEE7FEE7FEE7FEE705120008A2
:1001E000AD0100082DE9F05F0546002092469B46D0
:1001F00088460646814640241BE02846414647463D
:10020000224600F042F853465A46C01A914110D394
:1002100011461846224600F029F82D1A67EB01080E
:100220004F4622460120002100F020F817EB00097C
:100230004E41201EA4F10104DFDC484631462A4627
:100240004346BDE8F09F0000064C074D06E0E0681D
:1002500040F0010394E8070098471034AC42F6D30D
:10026000FFF7A8FFC01C0008E01C0008202A04DBE0
:10027000203A00FA02F1002070479140C2F12003B9
:1002800020FA03F3194390407047202A04DB203AF8
:1002900021FA02F00021704721FA02F3D040C2F1A6
:1002A00020029140084319467047FEE7054900289F
:1002B000086802D040F0010001E020F00100086071
:1002C0007047000000000550014948617047000078
:1002D0000000055005490028086802D040F480401D
:1002E00001E020F4804008607047000000000550E5
:1002F0000349024600200969114200D001207047DD
:100300000000055010B50120FFF7F2FF002805D0CE
:100310000120FFF7D9FF02490120087010BD00003D
:1003200024000020054A0029D16801D0014302E0E1
:10033000C04380B20140D16070470000000005500A
:1003400030B50D4A116844F20103994311601368F6
:1003500040F6F2718B4301884488C5882143848824
:100360002C4321430489214344898089214301434B
:100370001943116030BD00000000055005490028F8
:10038000086802D040F0080001E020F00800086092
:10039000704700000000055038B504460121FF20D9
:1003A00000F0BEF869461C2000F020F8B8B99DF8AE
:1003B0000000207069461D2000F018F878B99DF8FB
:1003C0000000607069460A2000F010F838B99DF806
:1003D0000000A07069460B2000F008F808B1FF206B
:1003E00038BD9DF80000E070002038BD2DE9F05FB9
:1003F000474D834689462868464C208840F48060F3
:100400002080DFF810810121A8F11408404600F097
:1004100065FA2E68404F01E0761E61D339464046AA
:1004200000F024FA0028F7D000226121404600F0B5
:10043000C8FA2E68DFF8E4A001E0761E50D35146DA
:10044000404600F013FA0028F7D05946404600F025
:10045000C0FA2E68DFF8C4A00AF1020A01E0761E95
:100460003ED35146404600F001FA0028F7D02088DC
:1004700040F48060208001214646404600F038FA72
:100480000121304600F02AFAA8462D6801E06D1ED1
:1004900026D33946304600F0E9F90028F7D001228A
:1004A00061213546304600F08CFAD8F80070464697
:1004B000DFF8648008F1010801E07F1E10D3414697
:1004C000284600F0D3F90028F7D000212F4628460F
:1004D00000F0C2F93568104E3F3604E06D1E02D2BE
:1004E000FF20BDE8F09F3146384600F0BFF90028F4
:1004F000F4D00121384600F0FBF9384600F05EFAEE
:1005000089F80000208840F4806020800020E8E71F
:10051000740000201458004001000300820007000E
:100520002DE9F047264C804689462068254E01215A
:10053000304600F0D3F92568234F01E06D1E30D31B
:100540003946304600F092F90028F7D000226021A9
:100550003546304600F035FA26681C4F01E0761E1D
:100560001FD33946284600F081F90028F7D04146CC
:100570002E46284600F02DFA25683746134EB61C45
:1005800001E06D1E0DD33146384600F06FF90028AA
:10059000F7D04946384600F01CFA246804E0641E8F
:1005A00002D2FF20BDE8F0873146384600F05EF900
:1005B0000028F4D00121384600F09AF90020F1E734
:1005C0007400002000580040010003008200070072
:1005D0000029016802D041F0010101E021F0010190
:1005E000016070472DE9F043016821F001010160CD
:1005F0000021016041608160C16001612121416190
:100600003C493C4A3D251039904202D18D60BDE8FD
:10061000F083384A4FF474661832904201D18E60EC
:10062000F5E7344A4FF474173032904201D18F60AD
:10063000EDE7304A4FF0746C4832904202D1C1F875
:1006400008C0E4E72B4B2C4A6033984201D1CA60C2
:10065000DDE7284C294B7834A04201D1CB60D6E7A6
:10066000DFF89080264C08F19008404501D1CC601D
:10067000CDE7DFF880804FF03D5908F1A8084045EC
:1006800002D1C1F80C90C2E71E49DFF87880083922
:10069000404501D10D60BAE71A4D1835A84201D185
:1006A0000E60B4E7174D3035A84201D10F60AEE7B8
:1006B000144D4835A84202D1C1F800C0A7E7114D3A
:1006C00010496035091FA84201D10A609FE70D4A11
:1006D0007832904201D10B6099E70A4A90329042F9
:1006E00001D10C6093E7074AA83290428FD1C1F83C
:1006F00000908CE7106002403D000020400F002079
:1007000000003D201064024030B50368124ACC68F6
:1007100013400A682243D1E905452C432243CC69A2
:1007200022430C6A22434C6A22438C6A22434C6B5C
:1007300022438C6B22431A430260426922F0070372
:10074000D1E90B2422431A4342610A6942604A6894
:1007500082608968C16030BD3F801CF07047000036
:1007600001B503480099816081680029FCD108BD6A
:100770002400002040F2E63302E01946491EFDD273
:10078000401EFAD27047F0B50023012403270D68FC
:1007900004FA03F21540954242D1D0F800C05E0041
:1007A00007FA06F52CEA050CC0F800C091F804C061
:1007B000D0F800E00CFA06FC4CEA0E0CC0F800C0C1
:1007C00091F804C0BCF1010F02D0BCF1020F1FD19F
:1007D000D0F808C02CEA050CC0F808C091F805C094
:1007E000D0F808E00CFA06FC4CEA0E0CC0F808C081
:1007F000D0F804C02CEA020CC0F804C0426891F89A
:1008000006C00CFA03FC1FFA8CFC42EA0C024260A0
:10081000C268AA43C260CA79C568B2402A43C260AE
:100820005B1C102BB3D3F0BD4B07DB0E9A40C908FD
:1008300010B500EB8100016A0F249C40A1430162C6
:10084000016A1143016210BD0246002012690A428A
:1008500000D001207047FEE70029018802D041F452
:10086000806101E021F48061018070470246002030
:10087000938A128B43EA024323F07F42914300D1D3
:10088000012070470029018802D041F0010101E0F8
:1008900021F00101018070470D4910B5884202D155
:1008A00001214C050AE00B49884202D101218C0547
:1008B00004E0094988420AD10121CC05204600F014
:1008C000FDFA2046BDE81040002100F0F7BA10BD47
:1008D0000054004000580040005C0040002901889E
:1008E00002D041F4807101E021F4807101807047F1
:1008F0000029018802D041F4007101E021F4007167
:10090000018070477FB5044680880D4620F03F0681
:10091000684600F0F1FA27490298B0FBF1F189B27C
:100920000E43A680228822F001022280224B2A68F0
:100930009A421BD85200B0FBF2F080B2042800D2D9
:100940000420491C2184A083208840F001002080DD
:1009500021884FF6F5300140A8886A891043084382
:100960002080A8892989084320817FBDEB88A3F5D1
:100970003F46FF3E0BD002EBC20303EB0212B0FB7B
:10098000F2F080B240F48040020506D007E002EBAE
:100990004202B0FBF2F080B2F6E740F001004FF403
:1009A000967251434FF47A72B1FBF2F140F4004079
:1009B000C7E7000040420F00A0860100008AC0B2D5
:1009C000704712B141F0010101E001F0FE01018226
:1009D00070470182704700001CB5012000F086FAC4
:1009E0000121084600F046FA0D4C0022082120465D
:1009F000FFF71AFF0221A0158DF8051000908DF861
:100A0000041000208DF8060001208DF807006946CB
:100A10002046FFF7B8FE0021084600F0B5FA1CBDDD
:100A200000000240FEE7704730B50F22C47801781D
:100A30000123FCB1144C246801F1E02104F4E064CA
:100A4000C4F5E064C4F30724C4F10405E24044782B
:100A5000AC408578154025432A0181F800240078B0
:100A600000F01F018B404009800000F1E020C0F839
:100A7000003130BD01F01F0083404809800000F1C3
:100A8000E020C0F8803130BD0CED00E002490843A1
:100A900002490860704700000000FA050CED00E014
:100AA000052804D2DFE800F00305080B0E00074814
:100AB0000AE006480F3007E004481E3004E003480F
:100AC0002D3001E001483C3000F0B8BA741C000839
:100AD00010B504460021FF20FFF722FD00217C20F5
:100AE000FFF71EFD04217D20FFF71AFD09217C2060
:100AF000FFF716FD21467D20FFF712FD0021BDE81E
:100B000010407D20FFF70CBD2DE9F04F87B001218B
:100B100040F21F1000F0AEF90121084600F0B6F9CE
:100B2000DFF840B10D2206215846FFF77DFE0D2269
:100B300004215846FFF778FEDFF82C910D2207219B
:100B40004846FFF771FEDFF824A10D22062150462A
:100B5000FFF76AFE0D2207215046FFF765FE0D22C2
:100B600008215046FFF760FE0D2209215046FFF78D
:100B70005BFE0D220B215046FFF756FE3C4F0D2227
:100B800003213846FFF750FEDFF8E8800D220521EB
:100B90004046FFF749FE0D2206214046FFF744FE7E
:100BA00002258DF8045003208DF8050000246020F4
:100BB0008DF80640012600908DF807606946404692
:100BC000FFF7E1FD4FF43C60009069465046FFF7A7
:100BD000DAFD0820009069463846FFF7D4FD102062
:100BE000009069465846FFF7CEFD80200090694688
:100BF0004846FFF7C8FD402000908DF804508DF85E
:100C0000064069465846FFF7BEFD2020ADF80C00AF
:100C1000ADF80850ADF81040ADF80A40ADF80E4000
:100C2000ADF81240ADF8144002A8FFF789FB01208F
:100C3000FFF7A4FB4FF4E060FFF728FF4E208DF88C
:100C400018008DF819408DF81A608DF81B6006A801
:100C5000FFF7EAFE01210846FFF764FB07B0BDE895
:100C6000F08F000000000240000402400008024033
:100C7000000C02400010024030B5012191B08805FF
:100C800000F0F8F81B4D2846FFF7ACFC4FF0007061
:100C900000901948019019480024CDE902044FF44E
:100CA0000050CDE90404C01006908000CDE907048F
:100CB000001109904FF440300A9004200B9003205B
:100CC000CDE90C04694628460E94FFF71DFD4FF44C
:100CD000E060FFF7DBFE39208DF83C008DF83D40E9
:100CE0008DF83E4001208DF83F000FA8FFF79CFED5
:100CF00011B030BD28640240280005507C0000205F
:100D000010B500F04BF9FFF767FEFFF7FDFEFFF7A8
:100D1000B3FF00F0A3F8BDE8104040F6FF70FFF706
:100D200029BD000070B5054600F098F8C820FFF70F
:100D300021FD474E002400BF06EB4400417816F821
:100D40001400FFF7EDFB0120FFF714FD641CBE2C1F
:100D5000F2D3404E002400BF06EB4400417816F861
:100D60001400FFF7DDFB0120FFF704FD641C092CD4
:100D7000F2D30121FF20FFF7D3FB00211520FFF75D
:100D8000CFFB344E0024123606EB4400417816F8AF
:100D90001400FFF7C5FB0120FFF7ECFC641C082CD6
:100DA000F2D36420FFF7E6FC2A4E2236022D12D041
:100DB000032D1FD0042D2CD0052D4FF0000439D069
:100DC00006EB4400417816F81400FFF7A9FB641CF9
:100DD000272CF5D370BD002406EB4400417816F8AB
:100DE0001400FFF79DFB0120FFF7C4FC641C272CB7
:100DF000F2D370BD174D002415F1700505EB4400CA
:100E0000417815F81400FFF78BFB641C272CF5D3F1
:100E100070BD104D0024BE3505EB4400417815F837
:100E20001400FFF77DFB0120FFF7A4FC641C282CB5
:100E3000F2D370BD084D00BF05EB4400417815F8B2
:100E40001400FFF76DFB641C272CF5D370BD000068
:100E50009C190008181B0008261C000810B5012169
:100E6000FF20FFF75DFB8021BDE810401220FFF757
:100E700057BB7047044A0029116801D0014300E0C4
:100E8000814311607047000030380240044A002955
:100E9000116801D0014300E08143116070470000F8
:100EA00034380240044A0029116801D0014300E0AF
:100EB000814311607047000040380240044A002915
:100EC000116801D0014300E08143116070470000C8
:100ED00020380240044A0029116801D0014300E093
:100EE0008143116070470000443802400149C864E2
:100EF000704700000000474270B5204A1168204C3E
:100F000011F00C0104D06610042903D0082903D085
:100F100004601BE0066019E01849091F0B68C3F361
:100F200080550B6803F03F0315B1B6FBF3F301E006
:100F3000B4FBF3F30C680968C4F388146343C1F38A
:100F40000141491C4900B3FBF1F1016011680F2315
:100F500003EA11110B4B5C5C0168E14041601468CD
:100F6000072505EA94241C5D21FA04F484601268C4
:100F700005EA52329A5CD140C16070BD0838024027
:100F80000024F40014000020034A1368084323F0EF
:100F9000EC631843106070470838024010B586B003
:100FA00001210220FFF766FF01218805FFF77AFF84
:100FB000204C04220B212046FFF736FC04220A2194
:100FC0002046FFF731FC02218DF8141001228DF824
:100FD00016204FF440608DF8151004908DF81720FE
:100FE00004A92046FFF7CFFB134C2046FFF754FC23
:100FF0000020ADF804004BF6FF70ADF80600FE20AF
:10100000ADF808002015ADF80A000001ADF80C009D
:1010100042F21070009069462046FFF773FC0121F0
:101020002046FFF72FFC01212046FFF715FC06B0F4
:1010300010BD0000000402400058004010B50446F6
:10104000217811B96078002804D06078A41CFFF7DB
:1010500067FAF5E710BD00002DE9FC41884604461B
:10106000304930480C3150F8240051F8241008431E
:101070000121FFF7FFFE2B480C38ECB350F8240099
:101080000121FFF70FFF2748274E3E3810F81420A4
:101090000C3830F8141056F82400FFF7C5FB21482F
:1010A00006F10C07383810F814200C3830F81410FA
:1010B00057F82400FFF7B8FB00208DF80600012048
:1010C0008DF807001748022556388DF8045030F87F
:1010D000140000908DF8055056F824006946FFF77B
:1010E00052FB10488DF804505038694630F814000F
:1010F000009057F8240000E00FE0FFF744FBA6F152
:101100000C05414655F8240000F0DAF855F82400A3
:10111000012100F0AFF8BDE8FC8100680121FFF774
:10112000D9FEB0E7841900085C0000207047000079
:101130001CB500202E49019000900A6842F48032CC
:101140000A604FF4A0430A6802F400320092019A48
:10115000521C0192009A12B9019A9A42F3D10A687C
:10116000920342D50120009021484030026842F0AD
:10117000805202601F48026842F4404202601C4AEA
:10118000083213681360136843F400431360136854
:1011900043F4A0531360141F174B23600B6843F0F4
:1011A00080730B600B689B01FCD5016841F48031B2
:1011B00001604168C903FCD5016841F40031016058
:1011C00041688903FCD50D4940F20570086010683C
:1011D00020F003001060106840F0020010601068FA
:1011E000C0F381000228FAD11CBD00901CBD000094
:1011F0000038024000700040085A4007003C02409E
:1012000000F02EB8124810B5016841F47001016079
:101210001048016841F0010101600E4A00210832C6
:10122000116002680C4B1A400260031D0B4A1A60E1
:10123000026822F48022026006480C300160FFF749
:1012400077FF03494FF000608039086010BD00004F
:1012500088ED00E000380240FFFFF6FE1030002469
:1012600003488168002902D08168491E8160704767
:10127000240000200029818902D041F4005101E0BE
:1012800021F40051818170471FB54FF4E130009087
:101290000020ADF80400ADF80600ADF80800ADF888
:1012A0000C000C20ADF80A0069460020FFF7D4FEC0
:1012B0001FBD0246002012880A4200D0012070475C
:1012C0007FB50446008A0D4620F44051E888084363
:1012D0002082A08941F20C618843A9882A891143A0
:1012E0006A8902431143A181A08A20F44071A88930
:1012F0000843A0826846FFF7FFFD1A48844202D0E7
:101300001948844201D1039800E00298A189090498
:1013100000EBC00101EB0010296801D5490000E095
:101320008900B0FBF1F26420B2FBF0F109010B0976
:101330006FF018056B4302EB8302A3891D044FF085
:10134000320306D503EBC202B2FBF0F000F0070057
:1013500005E003EB0212B2FBF0F000F00F000843CF
:1013600020817FBD0010014000140140C1F308013D
:101370008180704770B5074C054640212046FFF735
:1013800098FF0028F9D029462046BDE87040FFF7B5
:10139000EDBF000000100140FEE700000FB4054B58
:1013A00010B503A9044A029800F018F810BC5DF8C3
:1013B00014FB00009D1600087800002002E008C819
:1013C000121F08C1002AFAD170477047002001E0BF
:1013D00001C1121F002AFBD1704700002DE9FF4F09
:1013E0008DB09B460F460446002606E025280BD00C
:1013F0005A460F999047641C761C20780028F5D136
:1014000011B03046BDE8F08F0025A846012298496A
:1014100000E0054314F8013F203B02FA03F00842C4
:10142000F7D120782E2817D114F8010F45F00405C4
:101430002A280ED06FF02F022078A0F13001092960
:101440000AD808EB880102EB410100EB0108641C9B
:10145000F2E757F8048B641C20786C280DD004DC6C
:101460004C2812D06A2811D104E074280DD07A28B3
:101470000CD10AE045F4001507E0617845F48015C9
:10148000814202D1641C05F58015641C2278692A0A
:1014900045D008DC002AB3D0582A69D0632A10D07E
:1014A000642A08D13BE0702A67D0732A13D0752ACA
:1014B0005CD0782A5CD010465A460F999047761C2B
:1014C000D3E017F8040B8DF8000000208DF8010020
:1014D000E946012003E057F8049B4FF0FF3069070D
:1014E0004FF0000501D40AE06D1C45450DDA854238
:1014F000FADB19F805100029F6D106E06D1C8542CB
:10150000FCDB19F805100029F8D12E4404E019F885
:10151000010B5A460F9990476D1EF8D2A5E00A209C
:101520000021CDE90801C5F3025002280DD001CFFA
:10153000C117031E71F100030DDA4FF0000CD0EB60
:101540000C006CEB01012D2308E0FF1D27F00707BD
:10155000F7E80201EDE72B0504D52B238DF82830A1
:1015600001233BE0EB0739D02023F7E70A2000E016
:1015700010200021CDE9080107E01020002145F0EE
:101580000405CDE908014FF00808C5F30250022810
:101590000FD001CF00214FF0000A2B071FD5702A72
:1015A0000DD0DDE908C38CF0100C5CEA030C0CD004
:1015B00015E0FF1D27F00707F7E80201EBE74022DF
:1015C0008DF828204FF0010A0BE050EA010306D005
:1015D00030238DF828308DF8292002239A46582A86
:1015E00004D024A20DF120090B9209E026A2F9E70C
:1015F000DDE90823FEF7F6FD0B9B9B5C09F8013D36
:1016000050EA0102F4D1ADEB0900203008906807E0
:1016100001D44FF001080899884502DDA8EB0100CC
:1016200000E000208046002506E00AA85A46405DFA
:101630000F9990476D1C761C5545F6DB04E0302071
:101640005A460F999047761CB8F10001A8F101089D
:10165000F5DC05E019F8010B5A460F999047761C06
:101660000899481E08900029F4DC641CC5E60000B7
:101670000928010030313233343536373839616268
:10168000636465660000000030313233343536372C
:1016900038394142434445460000000070B5074DCB
:1016A0000446C1B22846FFF761FE40212846FFF7F5
:1016B00000FE0028F9D0204670BD00000010014057
:1016C00088B068484FF47A7101260068B0FBF1F1E8
:1016D000491EB1F1807F35D24FF0E0204161624A6E
:1016E000F02182F8141D0025856107210161FFF7B3
:1016F000CBFD02A8FFF700FC5C4C0298B0FBF4F1B4
:101700005BA0FFF74BFE0398B0FBF4F15CA0FFF782
:1017100045FE0498B0FBF4F15CA0FFF73FFE05988E
:10172000B0FBF4F15CA0FFF739FE5EA0FFF736FED8
:10173000FFF7E6FA0120FFF713F801A8FEF72CFEE9
:1017400008B113E0FEE79DF804107F290BD19DF846
:101750000520A22A07D19DF80600262803D19DF86E
:101760000730422B56D054A0FFF718FE0420FFF795
:10177000D9FA2020FFF7ACF90220FFF791F90A20EF
:10178000FEF7EEFF0A20FEF7EBFF01210846FFF708
:1017900089FB8DF81C508DF81E5002208DF81D001D
:1017A0004B4C8DF81F50B14606A920460696FEF711
:1017B000EAFFA046DFF81CA1474F484C01214646EE
:1017C0004046FFF741F8A0B184F80190012150464E
:1017D000FEF7FEFE0120FEF77DFD0120FEF766FD0F
:1017E0003FA0FFF7DBFD01213046FFF72DF8002871
:1017F000F9D120780028E1D00020FEF76BFD002011
:10180000FEF754FD00215046FEF7E2FE3878FF282F
:1018100005D022E0009036A0FFF7C0FDA6E778785B
:10182000D82803D019E0401C606000E06068C0F573
:101830000441394411F8022CFF2AF4D111F8011C9B
:10184000D929F0D1002603E0B85DFFF793FD761C9F
:101850006068C0F50440B042F6D8656025706570D8
:10186000ACE70000000000200FE000E040420F0065
:101870000D0A535953434C4B3A25644D0D0A000051
:1018800048434C4B3A25644D0D0A000050434C4BE5
:10189000313A25644D0D0A0050434C4B323A2564D1
:1018A0004D0D0A000A0D2044434D49204578616DD5
:1018B000706C650A0D0000004F56323634302049F6
:1018C00044206973204572726F72210D0A00000076
:1018D00000000240286402407C0000202400002018
:1018E0006B65795F666C6167203D31200D0A0000F1
:1018F0004F56323634302049443A307825782030FB
:10190000782578203078257820307825780D0A00E1
:101910000100002000200100002000200000020043
:10192000030000000D000D00060028002800000242
:10193000200000010004400000020900050008002A
:101940000A0006000900070007000700070007005B
:10195000070040008000000100020000200000009D
:101960002000000020000000200000000100000016
:101970000400000008000000100000000000020049
:101980000000040001000000080000000800000042
:10199000010000000800000008000000FF002CFF0C
:1019A0002EDFFF013C3211000902042813E5144820
:1019B0002C0C33783A333BFB3E004311161039921E
:1019C00035DA221A37C3230034C0361A068807C016
:1019D0000D870E414C0048005B0042034A8121996B
:1019E0002440253826825C006300617062807C059B
:1019F000208028306C006D806E007002719473C17D
:101A000012401711184319001A4B320937C04F60A2
:101A100050A86D003D38463F4F600C3CFF00E57F0D
:101A2000F9C04124E01476FF33A0422043184C0053
:101A300087D5883FD703D910D382C808C9807C00D6
:101A40007D007C037D487D487C087D207D107D0ED7
:101A50009000910E911A9131915A91699175917EF0
:101A60009188918F919691A391AF91C491D791E86C
:101A700091209200930693E39305930593009304BA
:101A800093009300930093009300930093009600BB
:101A9000970897199702970C9724973097289726BD
:101AA00097029798978097009700C3EDA400A8002D
:101AB000C511C651BF80C710B666B8A5B764B97C5A
:101AC000B3AFB497B5FFB0C5B194B20FC45CC064F6
:101AD000C14B8C00863D500051C8529653005400B3
:101AE00055005AC85B965C00D37FC3ED7F00DA00D7
:101AF000E51FE167E000DD7F05001240D37FC016DF
:101B0000C1128C00863D5000512C522453005400C9
:101B100055005A2C5B245C00FF000500DA10D70347
:101B2000DF0033803C40E1770000E014E177E51FFF
:101B3000D703DA10E000FF010408FF01124017117B
:101B4000184319001A4B32094FCA50A85A236D0086
:101B5000391235DA221A37C3230034C0361A068800
:101B600007C00D870E414C00FF00E004C064C14B6C
:101B70008635509251C85296530054005500570074
:101B80005A285B1E5C00E000FF0112401711184349
:101B900019001A4B32094FCA50A85A236D00391246
:101BA00035DA221A37C3230034C0361A068807C034
:101BB0000D870E414C00FF00E004C064C14B863528
:101BC000509251C8529653005400550057005A2C59
:101BD0005B245C00E000FF01110112001711187571
:101BE000323619011A97030F37404FBB509C5A5792
:101BF0006D803D3439023588220A374034A0060210
:101C00000DB70E01FF00E004C0C8C19686355089AB
:101C10005190522C53005400558857005AC85B9677
:101C20005C00D302E000FF011240171118431900B5
:101C30001A4B32094FCA50A85A236D00391235DAAF
:101C4000221A37C3230034C0361A068807C00D870E
:101C50000E414C00FF00E004C064C14B8635508942
:101C600051C8529653005400550057005A585B48CB
:101C70005C00E000FF01FF2420FF2518FF2660FF25
:101C8000000000FF01FF2434FF251CFF2670FF0029
:101C90000000FF01FF243EFF2538FF2681FF0000E2
:101CA00000FF01FF2448FF2540FF2681FF000000C0
:101CB000FF01FF2458FF2550FF2692FF000000007F
:101CC000E01C0008000000207C000000BC1300089D
:101CD0005C1D00087C00002004880000CC13000874
:101CE0000095BA0A00000000000000000102030491
:101CF00006070809000000000102030401020304B2
:101D000006070809000000000000000000000000B5
:101D100000000000001402400014024000140240C1
:101D2000001402400000024000080240000C024083
:101D30000010014000440040004800400000024004
:101D4000000C0240000C024000000240000C024067
:0C1D5000000C0240102700000000000002
:04000005080001AD41
:00000001FF
