:020000040800F2
:1000000088040020C1010008D30D0008CF0D0008AE
:10001000D10D0008A9020008DD1200080000000050
:10002000000000000000000000000000F70D0008C4
:10003000AB02000800000000F50D0008F90D0008F3
:10004000DB010008DB010008DB010008DB01000820
:10005000DB010008DB010008DB010008DB01000810
:10006000DB010008DB010008DB010008DB01000800
:10007000DB010008DB010008DB010008DB010008F0
:10008000DB010008DB010008DB010008DB010008E0
:10009000DB010008DB010008DB010008DB010008D0
:1000A000DB010008DB010008DB010008DB010008C0
:1000B000DB010008DB010008DB010008DB010008B0
:1000C000DB010008DB010008DB010008DB010008A0
:1000D000DB010008B1120008DB010008DB010008A9
:1000E000DB010008DB010008DB010008DB01000880
:1000F000DB010008DB010008DB010008DB01000870
:10010000DB010008DB010008DB010008DB0100085F
:10011000DB010008DB010008DB010008DB0100084F
:10012000DB010008DB010008DB010008DB0100083F
:10013000DB010008DB010008DB010008DB0100082F
:10014000DB010008DB010008DB010008DB0100081F
:10015000DB010008DB010008DB010008DB0100080F
:10016000DB010008DB010008DB010008DB010008FF
:10017000DB010008DB010008DB01000800000000D3
:10018000DB010008DB010008DB010008DB010008DF
:10019000DB010008DB010008DB010008DB010008CF
:1001A000DB010008DB010008DB010008DFF80CD0F0
:1001B00000F068F800480047FD120008880400209D
:1001C0000648804706480047FEE7FEE7FEE7FEE7F1
:1001D000FEE7FEE7FEE7FEE7FEE7FEE7950E000816
:1001E000AD0100082DE9F05F0546002092469B46D0
:1001F00088460646814640241BE02846414647463D
:10020000224600F02FF853465A46C01A914110D3A7
:1002100011461846224600F016F82D1A67EB010821
:100220004F4622460120002100F00DF817EB00098F
:100230004E41201EA4F10104DFDC484631462A4627
:100240004346BDE8F09F202A04DB203A00FA02F181
:10025000002070479140C2F1200320FA03F31943B4
:1002600090407047202A04DB203A21FA02F0002156
:10027000704721FA02F3D040C2F1200291400843B6
:1002800019467047064C074D06E0E06840F0010350
:1002900094E8070098471034AC42F6D3FFF78AFF82
:1002A000E413000804140008FEE7704790F83510C6
:1002B000022903D08021416501207047052180F883
:1002C00035100068016821F00101016000207047CD
:1002D0002DE9F84FDFF890B100224FF001084FF000
:1002E000030A4FF00F090BF1040E00BF0B6808FA68
:1002F00002F42340A3426ED14D68022D01D0122D8D
:100300000ED1D50800EB850CDCF820505607F70E0F
:1003100009FA07F6B5430E69BE402E43CCF82060BB
:10032000066855000F790AFA05FC07F0030726EA6C
:100330000C06AF40374307604E68012E05D0022EF1
:1003400003D0112E01D0122E0ED18768CE6827EA75
:100350000C07AE403E4386604668A6430C79C4F362
:100360000014944034434460C4688E6824EA0C044A
:10037000AE402643C6604C68E4006FD53B4C256810
:1003800045F480452560246822F0030504F4804488
:100390000094374C2E19D6F8084895072F0F09FA04
:1003A00007F5AC43334DA84201D100252EE0324D74
:1003B000A84201D1012529E0304DA84201D10225F2
:1003C00024E02F4DA84201D103251FE02D4DA84266
:1003D00002D104251AE041E02B4DA84201D10525A8
:1003E00014E02A4DA84201D106250FE0284DA8426D
:1003F00001D107250AE0274DA84201D1082505E0D3
:10040000254DA84201D1092500E00A25BD4025431C
:10041000C6F80858DBF800405D464E689C43F6037A
:1004200000D51C432C60DEF8004075464E689C43A6
:10043000B60300D51C432C600B4D08352C684E6864
:100440009C43F60200D51C432C60074D0C352C68EC
:100450004E689C43B60200D51C432C60521C102AE7
:10046000FFF444AFBDE8F88F003C0140443802403F
:100470000030014000000240000402400008024039
:10048000000C02400010024000140240001802401C
:10049000001C024000200240002402400AB1816199
:1004A00070470904FBE700000148806870470000BE
:1004B0000000002002488168027811448160704782
:1004C000000000200B4810B5016841F40071016084
:1004D000016841F480610160016841F4807101604C
:1004E000032000F097F8002000F006F800F024F850
:1004F000002010BD003C024070B50D4D04464FF485
:100500007A712878B1FBF0F00A490968B1FBF0F084
:1005100000F01DFB48B9102C07D200222146501EC6
:1005200000F058F800206C6070BD012070BD000024
:10053000000000200C0000201F4808B5016841F4AD
:1005400080410160006800F4804000901A48001F5C
:10055000016841F080510160006800F08050009017
:10056000032000F057F8002211466FF00B0000F056
:1005700031F8002211466FF00A0000F02BF800223B
:1005800011466FF0090000F025F800221146501FB7
:1005900000F020F800221146101F00F01BF8002286
:1005A0001146901E00F016F80022BDE808401146E2
:1005B000501E00F00FB800004438024000F01F0247
:1005C000012191404009800000F1E020C0F80011B5
:1005D00070470000F0B40E4B1B680C46C3F30223B7
:1005E000C3F10705042D00D90425191D072901D2DF
:1005F000002300E0DB1E012606FA05F1491E21401A
:1006000099409E40761E16403143F0BC00F0E2BB9C
:100610000CED00E0064900F0070208684FF6FF0302
:10062000184040EA0220034A104308607047000067
:100630000CED00E00000FA052DE9F0470E4605003C
:1006400065D0DFF81481D8F80000F7B200F00F0091
:10065000B04207D288F80070D8F8000000F00F0010
:10066000B04254D128683D4C810712D5400703D5CC
:10067000206840F4E05020602878000703D5206807
:1006800040F4604020602068A96820F0F000084332
:1006900020602878C0072DD03049686808390128C3
:1006A00012D0022813D0032811D009688907002925
:1006B0002DDA216821F0030101432160FFF7F4FEE8
:1006C000814641F2883A0EE009688903EFE709683C
:1006D0008901ECE7FFF7E8FEA0EB0901514502D9DB
:1006E0000320BDE8F0872068696800F00C00B0EBDB
:1006F000810FEFD1D8F80010404601F00F01B14250
:1007000007D90770006800F00F00B04201D0012047
:10071000E7E72878400705D52068E96820F4E0502D
:10072000084320602878000706D52068296920F44E
:10073000604040EAC100206000F03CF82168084AAF
:10074000C1F30311515CC840064908600020FFF75F
:10075000D3FE0020C5E70000003C024008380240FC
:10076000CC1300080C00002001480068704700000E
:100770000C0000200448054900680968044AC1F3D8
:100780008221515CC84070470C00002008380240AC
:10079000DC1300080448054900680968044AC1F3ED
:1007A0004231515CC84070470C00002008380240BC
:1007B000DC130008154810B5006810F00C0214484E
:1007C00013D01449042A0FD0082A0ED10F4C241F2D
:1007D0002268236802F03F025B0207D52068C0F35D
:1007E0008810A0FB010106E0084610BD2168C1F396
:1007F0008811A1FB00010023FFF7F4FC2168C1F37D
:100800000141491C4900B0FBF1F010BD083802401D
:100810000024F40040787D012DE9F84F050076D0E2
:100820002878DFF8F8B2BE4CC00749D0DBF80010DA
:100830005846C1F38101012908D00068C0F3810046
:1008400002280AD1201D0068400206D520688003D6
:1008500036D568680028E2D032E06868B0F5803F9D
:1008600010D0B0F5A02F206810D020F48030206088
:10087000206820F4802020606868A0B1FFF714FE93
:1008800006460CE0206840F48030F4E740F4802015
:100890002060F7E7FFF708FE801B642873D8206804
:1008A0008003F7D50CE0FFF7FFFD064605E000BF2B
:1008B000FFF7FAFD801B6428F0D820688003F7D486
:1008C0002878DFF8608280074FF000093ED5DBF81A
:1008D0000010584611F00C0F09D00068C0F38100D9
:1008E00002280BD18D48001F0068400206D4206802
:1008F000800715D5E868012809D111E0E868B8B18A
:100900000120C8F80000FFF7CFFD064605E002E130
:10091000FFF7CAFD801B0228C0D820688007F7D5E2
:100920002068296920F0F80040EAC10020600DE04D
:10093000C8F80090FFF7B8FD064604E0FFF7B4FDE5
:10094000801B02281FD820688007F7D4287800076A
:1009500022D5724E744869696C3671B1012101600B
:10096000FFF7A2FD074604E0FFF79EFDC01B02282B
:1009700009D830688007F7D50EE0C0F80090FFF77F
:1009800093FD074605E083E0FFF78EFDC01B0228BC
:100990007ED830688007F7D42878400768D5DFF81C
:1009A0007CA100270AF1380ADAF80000C0000BD455
:1009B000DAF8001041F08051CAF80010DAF80000AF
:1009C000012700F080500090584E3068C00510D4C8
:1009D000306840F480703060FFF766FD009005E0FD
:1009E000FFF762FD0099401A022851D83068C0050F
:1009F000F6D54A4EA868683601280FD00528306819
:100A000010D020F001003060306820F00400306029
:100A1000A868B8B1FFF748FD00900FE0306840F0DB
:100A20000100F4E740F004003060F7E7FFF73CFD19
:100A30000099411A41F28830814264D830688007B9
:100A4000F4D50EE0FFF730FD009007E0FFF72CFD36
:100A50000099411A41F28830814254D830688007A9
:100A6000F4D42FB1DAF8001021F08051CAF8001048
:100A7000A869C0B3DBF80010C1F3810102294AD094
:100A80000228484607D0C8F86000FFF70DFD00E0D7
:100A900039E005463AE04746C8F86000FFF704FD34
:100AA000064604E0FFF700FD801B02282BD82068D3
:100AB0008001F7D4D5E907010843A96A1C4A49080F
:100AC00002EB01416A6A41EA8211084395F82C1051
:100AD00040EA01611148001F016001203866FFF7FC
:100AE000E3FC054605E014E0FFF7DEFC401B0228AE
:100AF00009D820688001F7D50BE000BFFFF7D4FCD0
:100B0000401B022802D90320BDE8F88F206880012D
:100B1000F4D40020F8E70120F6E70000083802408E
:100B20000038024000004742800E474200700040FB
:100B30000000FFFF4FF0E0210428086903D020F0F7
:100B400004000861704740F00400FAE7704710B5F0
:100B5000401EB0F1807F01D3012010BD4FF0E02492
:100B600060610F21601700F035F90020A0610720B7
:100B70002061002010BD10B5FFF7E8FF10BD7047E1
:100B800070B5026804461068D168536910F00F0F01
:100B900050D003F0010501F4907635435DD0C207D3
:100BA00005D0CA0503D5E26B42F00102E2634207B9
:100BB00005D5DA0703D0E26B42F00202E263820756
:100BC00005D5DA0703D0E26B42F00402E2630207C4
:100BD00005D5DA0703D0E26B42F00802E263E26B6C
:100BE000002A33D0800604D5880602D5204600F0BE
:100BF00091F920684069E16BC0F38010090700D4C7
:100C000028B3204600F078F92068416949061AD5D2
:100C1000416921F040014161606BA0B11B49016550
:100C2000606BFFF743FB002810D0606B016DBDE8DF
:100C300070400847830610D58B060ED52046BDE8C8
:100C4000704000F067B92046FFF799FF70BD20465D
:100C5000FFF795FF0020E06370BD030606D50B0685
:100C600004D52046BDE8704000F0F0BA4006F3D548
:100C70004806F1D5D168204621F04001D1602021FD
:100C800084F8391000F0A2F870BD0000E90E0008E9
:100C900070B5040004D094F83900002510B106E0C6
:100CA000012070BD84F83850204600F023F824203D
:100CB00084F839002068C16821F40051C1602046E1
:100CC00000F06EF92068016921F49041016120680B
:100CD000416921F02A0141612068C16841F4005155
:100CE000C160E563202084F8390084F83A000020D0
:100CF00070BD000000B50068124987B088421FD15E
:100D00001148016841F0100101600068694600F077
:100D1000100005904FF4C060009002200190012067
:100D2000029003200390072004900848FFF7D0FAB0
:100D3000002211462520FFF74DFC2520FFF73EFC41
:100D400007B000BD001001404438024000000240DE
:100D500090F83A30202B1DD1D1B1CAB190F838307B
:100D6000012B17D081628285C2850021C1632222B6
:100D700080F83A2080F8381001684A6942F0010290
:100D80004A610068C16841F49071C16000207047F9
:100D9000012070470220704770B50122084D94036E
:100DA00021462846FFF77AFB002221462846FFF716
:100DB00075FBBDE87040FA2202490348FFF7C8BF3F
:100DC0000018024000C00120100000207047FEE71C
:100DD000FEE770470907090E002806DA00F00F0049
:100DE00000F1E02080F8141D704700F1E02080F849
:100DF000001470477047704710B5FFF75BFBBDE804
:100E00001040FFF7B8BE000010B5204892B0002493
:100E1000016841F080510160006800F0805011903D
:100E20001B48016821F4404141F4804101600068A1
:100E3000069400F44040119002200090012003909D
:100E4000102004906846FFF7E7FC00B1FEE70F2092
:100E5000CDE90C040E940F9400210CA81094FFF718
:100E6000EBFB00B1FEE7FFF77FFC4FF47A71B0FBBC
:100E7000F1F0FFF76CFE0420FFF75CFE0022114644
:100E8000501EFFF7A7FB12B010BD00004038024013
:100E9000007000401048016841F4700101600F4883
:100EA000016841F0010101600C4A00210832116023
:100EB00002680B4B1A400260031D0A4A1A6002685E
:100EC00022F48022026005480C3001600249580675
:100ED000803908607047000088ED00E0003802406B
:100EE000FFFFF6FE1030002410B5806B0021C18595
:100EF000C184FFF744FE10BD0168CA6822F49072F5
:100F0000CA6001684A6922F001024A61202180F822
:100F10003A10704710B590F83A10222901D00220FB
:100F200010BD8168B1F5805F11D0016900290168A9
:100F30001FD0496801F07F03816A4A1C82620B70EE
:100F4000C18D491E0904090CC18518D026E002692B
:100F5000816A002A0268526805D0D2B20A80816A8A
:100F6000491C8162ECE7C2F308020A80816A891C8D
:100F7000F7E74A68816A4B1C83620A70E0E7016800
:100F8000CA6822F49072CA6001684A6922F00102BC
:100F90004A61202180F83A10FFF7FEFE002010BDC4
:100FA0002DE9F04104460068016921F44052E168EE
:100FB000114301612168C86849F20C6290432369BA
:100FC000A268E5691A4363692B431A430243CA6066
:100FD0002168486920F44072A06910434861E169C2
:100FE0006425B1F5004F9748974A21684FF03208C1
:100FF0003FD0914201D081427CD1FFF7CBFB00EB87
:10100000C00101EB001061688900B0FBF1F6FFF749
:10101000C1FB00EBC00101EB001061688900B0FB6F
:10102000F1F0B0FBF5F06FF01801484306EB8001DA
:1010300008EB0110B0FBF5F000F0F006FFF7AAFB9B
:1010400000EBC00101EB001061688900B0FBF1F01A
:10105000B0FBF5F006EB0016FFF79CFB00EBC001C0
:1010600001EB001061688900B0FBF1F7FFF792FB1C
:10107000D2E0914201D081423DD1FFF78BFB00EBE2
:10108000C00101EB001061684900B0FBF1F0B0FB5A
:10109000F5F00601FFF77EFB00EBC00101EB00104D
:1010A00061684900B0FBF1F7FFF774FB00EBC0018A
:1010B00001EB001061684900B0FBF1F0B0FBF5F006
:1010C0006FF01801484307EB800108EBC100B0FB4B
:1010D000F5F000F0F80006EB4006FFF75BFB00EBD5
:1010E000C00101EB001061684900B0FBF1F7FFF7A8
:1010F00051FB3CE055E0FFF73DFB00EBC00101EB8D
:10110000001061684900B0FBF1F0B0FBF5F006019A
:10111000FFF730FB00EBC00101EB001061684900F4
:10112000B0FBF1F7FFF726FB00EBC00101EB00106D
:1011300061684900B0FBF1F0B0FBF5F06FF0180109
:10114000484307EB800108EBC100B0FBF5F000F06D
:10115000F80006EB4006FFF70DFB00EBC00101EBCA
:10116000001061684900B0FBF1F7FFF703FB00EBEB
:10117000C00101EB001061684900B0FBF1F0B0FB69
:10118000F5F06FF01801484307EB800108EBC10050
:10119000B0FBF5F000F00700216830448860BDE83E
:1011A000F081FFF7E7FA00EBC00101EB0010616886
:1011B0008900B0FBF1F6FFF7DDFA00EBC00101EBAF
:1011C000001061688900B0FBF1F0B0FBF5F06FF042
:1011D0001801484306EB800108EB0110B0FBF5F065
:1011E00000F0F006FFF7C6FA00EBC00101EB0010BB
:1011F00061688900B0FBF1F0B0FBF5F006EB00167A
:10120000FFF7B8FA00EBC00101EB0010616889003C
:10121000B0FBF1F7FFF7AEFA00EBC00101EB0010F5
:1012200061688900B0FBF1F0B0FBF5F06FF01801D8
:10123000484307EB800108EB0110B0FBF5F000F02C
:101240000F00A9E7001401400010014090F8391088
:10125000212901D0022070478168B1F5805F016AC1
:101260000BD04A1C0262026809785160C18C491E89
:101270000904090CC1840ED017E009880268C1F383
:101280000801516001690029016A02D0491C01620C
:10129000ECE7891CFBE70168CA6822F08002CA609B
:1012A0000068C16841F04001C16000207047000043
:1012B00070B50122074D140321462846FFF7EEF8CA
:1012C0000548FFF75DFC21462846BDE87040002236
:1012D000FFF7E4B80018024010000020FEE702E02B
:1012E00008C8121F08C1002AFAD1704770470020B1
:1012F00001E001C1121F002AFBD1704786B0FFF741
:10130000E1F8FFF781FD2B480024016841F001015D
:101310000160016801F001010591016841F040019F
:1013200001600068244D00F040004FF4E046059055
:10133000224631462846FFF7B1F801200096CDE954
:101340000104694628460394FEF7C2FF1C491B4866
:1013500008604FF4E130C1E901040C20CC60C1E920
:1013600004408C610846CC61FFF792FC00B1FEE7B7
:10137000134C0020AA2140342154401C3228FBD3B6
:10138000FA2210490E48FFF7E3FC4FF40056012201
:1013900031462846FFF782F800200B49225C0A54A8
:1013A000401C3228F9D3002231462846FFF776F850
:1013B000EDE7000030380240001802400010014004
:1013C0001000002000C001200005002000000000E7
:1013D00000000000010203040607080900000000E5
:1013E00001020304041400080000002010000000A3
:1013F000DE12000814140008100000207804000019
:10140000EE120008010000001000000000000000C3
:041410000024F400C0
:04000005080001AD41
:00000001FF
